{
  "_format": "hh-sol-artifact-1",
  "contractName": "ChunkPayments",
  "sourceName": "contracts/ChunkPayments.sol",
  "abi": [
    {
      "inputs": [
        {
          "internalType": "address",
          "name": "_tokenAddress",
          "type": "address"
        },
        {
          "internalType": "address",
          "name": "_foundationWallet",
          "type": "address"
        }
      ],
      "stateMutability": "nonpayable",
      "type": "constructor"
    },
    {
      "anonymous": false,
      "inputs": [
        {
          "indexed": true,
          "internalType": "address",
          "name": "nodeAddress",
          "type": "address"
        },
        {
          "indexed": true,
          "internalType": "uint32",
          "name": "quoteIdentifier",
          "type": "uint32"
        },
        {
          "indexed": false,
          "internalType": "uint256",
          "name": "quoteAmount",
          "type": "uint256"
        }
      ],
      "name": "ChunkPaymentMade",
      "type": "event"
    },
    {
      "inputs": [],
      "name": "AUTONOMI_FOUNDATION_WALLET",
      "outputs": [
        {
          "internalType": "address",
          "name": "",
          "type": "address"
        }
      ],
      "stateMutability": "view",
      "type": "function"
    },
    {
      "inputs": [],
      "name": "AUTONOMI_TOKEN_ADDRESS",
      "outputs": [
        {
          "internalType": "address",
          "name": "",
          "type": "address"
        }
      ],
      "stateMutability": "view",
      "type": "function"
    },
    {
      "inputs": [
        {
          "internalType": "address[]",
          "name": "nodeAddresses",
          "type": "address[]"
        },
        {
          "internalType": "uint32[]",
          "name": "quoteIdentifiers",
          "type": "uint32[]"
        },
        {
          "internalType": "uint256[]",
          "name": "quoteAmounts",
          "type": "uint256[]"
        }
      ],
      "name": "submitBulkChunkPayments",
      "outputs": [],
      "stateMutability": "nonpayable",
      "type": "function"
    },
    {
      "inputs": [
        {
          "internalType": "address",
          "name": "nodeAddress",
          "type": "address"
        },
        {
          "internalType": "uint32",
          "name": "quoteIdentifier",
          "type": "uint32"
        },
        {
          "internalType": "uint256",
          "name": "quoteAmount",
          "type": "uint256"
        }
      ],
      "name": "submitChunkPayment",
      "outputs": [],
      "stateMutability": "nonpayable",
      "type": "function"
    }
  ],
  "bytecode": "0x60c060405234801561001057600080fd5b50604051610a60380380610a6083398101604081905261002f91610130565b6001600160a01b0382166100965760405162461bcd60e51b8152602060048201526024808201527f546f6b656e20616464726573732063616e6e6f74206265207a65726f206164646044820152637265737360e01b60648201526084015b60405180910390fd5b6001600160a01b0381166100fd5760405162461bcd60e51b815260206004820152602860248201527f466f756e646174696f6e2077616c6c65742063616e6e6f74206265207a65726f604482015267206164647265737360c01b606482015260840161008d565b6001600160a01b039182166080521660a052610163565b80516001600160a01b038116811461012b57600080fd5b919050565b6000806040838503121561014357600080fd5b61014c83610114565b915061015a60208401610114565b90509250929050565b60805160a0516108b76101a96000396000818160ae01528181610103015261030401526000818160560152818161035301528181610450015261055001526108b76000f3fe608060405234801561001057600080fd5b506004361061004c5760003560e01c80632f8a84aa146100515780634cc91091146100945780634edff7e0146100a95780639d689864146100d0575b600080fd5b6100787f000000000000000000000000000000000000000000000000000000000000000081565b6040516001600160a01b03909116815260200160405180910390f35b6100a76100a2366004610639565b6100e3565b005b6100787f000000000000000000000000000000000000000000000000000000000000000081565b6100a76100de3660046106c1565b610178565b60006100f060148361075b565b90506100fd338584610332565b610128337f000000000000000000000000000000000000000000000000000000000000000083610332565b8263ffffffff16846001600160a01b03167f2958c4cd64585bae617262f9ec953a5b08ad9ca8c56770e3ce298a303708db988460405161016a91815260200190565b60405180910390a350505050565b848314801561018657508281145b6101e65760405162461bcd60e51b815260206004820152602660248201527f496e70757420617272617973206d7573742068617665207468652073616d65206044820152650d8cadccee8d60d31b60648201526084015b60405180910390fd5b6000805b868110156102fd5760008484838181106102065761020661077d565b905060200201359050600060148261021e919061075b565b905061022a8185610793565b935061025d338b8b868181106102425761024261077d565b905060200201602081019061025791906107ba565b84610332565b87878481811061026f5761026f61077d565b905060200201602081019061028491906107dc565b63ffffffff168a8a8581811061029c5761029c61077d565b90506020020160208101906102b191906107ba565b6001600160a01b03167f2958c4cd64585bae617262f9ec953a5b08ad9ca8c56770e3ce298a303708db98846040516102eb91815260200190565b60405180910390a350506001016101ea565b50610329337f000000000000000000000000000000000000000000000000000000000000000083610332565b50505050505050565b6040516370a0823160e01b81526001600160a01b03848116600483015282917f0000000000000000000000000000000000000000000000000000000000000000909116906370a0823190602401602060405180830381865afa15801561039c573d6000803e3d6000fd5b505050506040513d601f19601f820116820180604052508101906103c091906107f7565b10156104195760405162461bcd60e51b815260206004820152602260248201527f57616c6c657420646f6573206e6f74206861766520656e6f75676820746f6b656044820152616e7360f01b60648201526084016101dd565b6001600160a01b038316301461052257604051636eb1769f60e11b81526001600160a01b03848116600483015230602483015282917f00000000000000000000000000000000000000000000000000000000000000009091169063dd62ed3e90604401602060405180830381865afa158015610499573d6000803e3d6000fd5b505050506040513d601f19601f820116820180604052508101906104bd91906107f7565b10156105225760405162461bcd60e51b815260206004820152602e60248201527f436f6e7472616374206973206e6f7420616c6c6f77656420746f207370656e6460448201526d20656e6f75676820746f6b656e7360901b60648201526084016101dd565b6040516323b872dd60e01b81526001600160a01b0384811660048301528381166024830152604482018390527f000000000000000000000000000000000000000000000000000000000000000016906323b872dd906064016020604051808303816000875af19250505080156105b5575060408051601f3d908101601f191682019092526105b291810190610810565b60015b610603573d8080156105e3576040519150601f19603f3d011682016040523d82523d6000602084013e6105e8565b606091505b508060405162461bcd60e51b81526004016101dd9190610832565b50505050565b80356001600160a01b038116811461062057600080fd5b919050565b803563ffffffff8116811461062057600080fd5b60008060006060848603121561064e57600080fd5b61065784610609565b925061066560208501610625565b9150604084013590509250925092565b60008083601f84011261068757600080fd5b50813567ffffffffffffffff81111561069f57600080fd5b6020830191508360208260051b85010111156106ba57600080fd5b9250929050565b600080600080600080606087890312156106da57600080fd5b863567ffffffffffffffff808211156106f257600080fd5b6106fe8a838b01610675565b9098509650602089013591508082111561071757600080fd5b6107238a838b01610675565b9096509450604089013591508082111561073c57600080fd5b5061074989828a01610675565b979a9699509497509295939492505050565b60008261077857634e487b7160e01b600052601260045260246000fd5b500490565b634e487b7160e01b600052603260045260246000fd5b808201808211156107b457634e487b7160e01b600052601160045260246000fd5b92915050565b6000602082840312156107cc57600080fd5b6107d582610609565b9392505050565b6000602082840312156107ee57600080fd5b6107d582610625565b60006020828403121561080957600080fd5b5051919050565b60006020828403121561082257600080fd5b815180151581146107d557600080fd5b60006020808352835180602085015260005b8181101561086057858101830151858201604001528201610844565b506000604082860101526040601f19601f830116850101925050509291505056fea2646970667358221220d82cd308224c2985d7c96aa1a3d83bb0684e4158e8a2d4dffb76c9aa8958336664736f6c63430008180033",
  "linkReferences": {},
  "deployedLinkReferences": {}
}