{
  "_format": "hh-sol-artifact-1",
  "contractName": "ChunkPaymentsWithQuotes",
  "sourceName": "contracts/ChunkPaymentsWithQuotes.sol",
  "abi": [
    {
      "inputs": [
        {
          "internalType": "address",
          "name": "_tokenAddress",
          "type": "address"
        },
        {
          "internalType": "address",
          "name": "_foundationWallet",
          "type": "address"
        }
      ],
      "stateMutability": "nonpayable",
      "type": "constructor"
    },
    {
      "anonymous": false,
      "inputs": [
        {
          "indexed": true,
          "internalType": "address",
          "name": "client_address",
          "type": "address"
        },
        {
          "indexed": true,
          "internalType": "bytes32",
          "name": "chunk_address_hash",
          "type": "bytes32"
        },
        {
          "indexed": true,
          "internalType": "address",
          "name": "node_address",
          "type": "address"
        },
        {
          "components": [
            {
              "internalType": "bytes32",
              "name": "chunk_address_hash",
              "type": "bytes32"
            },
            {
              "internalType": "uint256",
              "name": "cost",
              "type": "uint256"
            },
            {
              "internalType": "uint256",
              "name": "expiration_timestamp",
              "type": "uint256"
            },
            {
              "internalType": "address",
              "name": "payment_address",
              "type": "address"
            },
            {
              "components": [
                {
                  "internalType": "bytes32",
                  "name": "r",
                  "type": "bytes32"
                },
                {
                  "internalType": "bytes32",
                  "name": "s",
                  "type": "bytes32"
                },
                {
                  "internalType": "uint8",
                  "name": "v",
                  "type": "uint8"
                }
              ],
              "internalType": "struct ChunkPaymentsWithQuotes.Signature",
              "name": "signature",
              "type": "tuple"
            }
          ],
          "indexed": false,
          "internalType": "struct ChunkPaymentsWithQuotes.Quote",
          "name": "quote",
          "type": "tuple"
        }
      ],
      "name": "ChunkPaymentMade",
      "type": "event"
    },
    {
      "inputs": [],
      "name": "PAYMENT_TOKEN_ADDRESS",
      "outputs": [
        {
          "internalType": "address",
          "name": "",
          "type": "address"
        }
      ],
      "stateMutability": "view",
      "type": "function"
    },
    {
      "inputs": [],
      "name": "ROYALTIES_WALLET",
      "outputs": [
        {
          "internalType": "address",
          "name": "",
          "type": "address"
        }
      ],
      "stateMutability": "view",
      "type": "function"
    },
    {
      "inputs": [
        {
          "components": [
            {
              "internalType": "bytes32",
              "name": "chunk_address_hash",
              "type": "bytes32"
            },
            {
              "internalType": "uint256",
              "name": "cost",
              "type": "uint256"
            },
            {
              "internalType": "uint256",
              "name": "expiration_timestamp",
              "type": "uint256"
            },
            {
              "internalType": "address",
              "name": "payment_address",
              "type": "address"
            },
            {
              "components": [
                {
                  "internalType": "bytes32",
                  "name": "r",
                  "type": "bytes32"
                },
                {
                  "internalType": "bytes32",
                  "name": "s",
                  "type": "bytes32"
                },
                {
                  "internalType": "uint8",
                  "name": "v",
                  "type": "uint8"
                }
              ],
              "internalType": "struct ChunkPaymentsWithQuotes.Signature",
              "name": "signature",
              "type": "tuple"
            }
          ],
          "internalType": "struct ChunkPaymentsWithQuotes.Quote[]",
          "name": "quotes",
          "type": "tuple[]"
        }
      ],
      "name": "payForQuotes",
      "outputs": [],
      "stateMutability": "nonpayable",
      "type": "function"
    }
  ],
  "bytecode": "0x60c060405234801561001057600080fd5b5060405161097138038061097183398101604081905261002f91610130565b6001600160a01b0382166100965760405162461bcd60e51b8152602060048201526024808201527f546f6b656e20616464726573732063616e6e6f74206265207a65726f206164646044820152637265737360e01b60648201526084015b60405180910390fd5b6001600160a01b0381166100fd5760405162461bcd60e51b815260206004820152602860248201527f466f756e646174696f6e2077616c6c65742063616e6e6f74206265207a65726f604482015267206164647265737360c01b606482015260840161008d565b6001600160a01b039182166080521660a052610163565b80516001600160a01b038116811461012b57600080fd5b919050565b6000806040838503121561014357600080fd5b61014c83610114565b915061015a60208401610114565b90509250929050565b60805160a0516107cf6101a260003960008181604b01526101e5015260008181608e0152818161034c01528181610449015261054901526107cf6000f3fe608060405234801561001057600080fd5b50600436106100415760003560e01c80631c317b34146100465780635c0d328614610089578063bc25faa4146100b0575b600080fd5b61006d7f000000000000000000000000000000000000000000000000000000000000000081565b6040516001600160a01b03909116815260200160405180910390f35b61006d7f000000000000000000000000000000000000000000000000000000000000000081565b6100c36100be3660046105bc565b6100c5565b005b6000805b828110156101de57368484838181106100e4576100e4610631565b905060e00201905080604001354211156101395760405162461bcd60e51b8152602060048201526011602482015270145d5bdd19481a185cc8195e1c1a5c9959607a1b60448201526064015b60405180910390fd5b60006101448261020f565b90506000610157600a6020850135610647565b90506101638186610669565b94506101833361017960808601606087016106ac565b856020013561032b565b816001600160a01b03168360000135336001600160a01b03167fe44db969fd855d6eff002ad57b35ba1a79808cda11b4920f1a5620f4fb3023db866040516101cb91906106df565b60405180910390a45050506001016100c9565b5061020a337f00000000000000000000000000000000000000000000000000000000000000008361032b565b505050565b6000806102ad83356020850135604086013561023160808801606089016106ac565b6040805160208101959095528401929092526060808401919091521b6bffffffffffffffffffffffff19166080820152609401604051602081830303815290604052805190602001207f19457468657265756d205369676e6564204d6573736167653a0a3332000000006000908152601c91909152603c902090565b90506001816102c260e0860160c08701610743565b6040805160008152602081018083529390935260ff90911690820152608085810135606083015260a08087013591830191909152016020604051602081039080840390855afa158015610319573d6000803e3d6000fd5b5050604051601f190151949350505050565b6040516370a0823160e01b81526001600160a01b03848116600483015282917f0000000000000000000000000000000000000000000000000000000000000000909116906370a0823190602401602060405180830381865afa158015610395573d6000803e3d6000fd5b505050506040513d601f19601f820116820180604052508101906103b9919061075e565b10156104125760405162461bcd60e51b815260206004820152602260248201527f57616c6c657420646f6573206e6f74206861766520656e6f75676820746f6b656044820152616e7360f01b6064820152608401610130565b6001600160a01b038316301461051b57604051636eb1769f60e11b81526001600160a01b03848116600483015230602483015282917f00000000000000000000000000000000000000000000000000000000000000009091169063dd62ed3e90604401602060405180830381865afa158015610492573d6000803e3d6000fd5b505050506040513d601f19601f820116820180604052508101906104b6919061075e565b101561051b5760405162461bcd60e51b815260206004820152602e60248201527f436f6e7472616374206973206e6f7420616c6c6f77656420746f207370656e6460448201526d20656e6f75676820746f6b656e7360901b6064820152608401610130565b6040516323b872dd60e01b81526001600160a01b0384811660048301528381166024830152604482018390527f000000000000000000000000000000000000000000000000000000000000000016906323b872dd906064016020604051808303816000875af1158015610592573d6000803e3d6000fd5b505050506040513d601f19601f820116820180604052508101906105b69190610777565b50505050565b600080602083850312156105cf57600080fd5b823567ffffffffffffffff808211156105e757600080fd5b818501915085601f8301126105fb57600080fd5b81358181111561060a57600080fd5b86602060e08302850101111561061f57600080fd5b60209290920196919550909350505050565b634e487b7160e01b600052603260045260246000fd5b60008261066457634e487b7160e01b600052601260045260246000fd5b500490565b8082018082111561068a57634e487b7160e01b600052601160045260246000fd5b92915050565b80356001600160a01b03811681146106a757600080fd5b919050565b6000602082840312156106be57600080fd5b6106c782610690565b9392505050565b803560ff811681146106a757600080fd5b81358152602080830135908201526040808301359082015260e081016001600160a01b0361070f60608501610690565b1660608301526080830135608083015260a083013560a083015260ff61073760c085016106ce565b1660c083015292915050565b60006020828403121561075557600080fd5b6106c7826106ce565b60006020828403121561077057600080fd5b5051919050565b60006020828403121561078957600080fd5b815180151581146106c757600080fdfea2646970667358221220028c2985fbc6d247274052835200f02c698df2020503425f09f036341d944a4064736f6c63430008180033",
  "linkReferences": {},
  "deployedLinkReferences": {}
}