{
  "_format": "hh-sol-artifact-1",
  "contractName": "ChunkPayments",
  "sourceName": "contracts/ChunkPayments.sol",
  "abi": [
    {
      "inputs": [
        {
          "internalType": "address",
          "name": "_tokenAddress",
          "type": "address"
        },
        {
          "internalType": "address",
          "name": "_foundationWallet",
          "type": "address"
        }
      ],
      "stateMutability": "nonpayable",
      "type": "constructor"
    },
    {
      "anonymous": false,
      "inputs": [
        {
          "indexed": true,
          "internalType": "address",
          "name": "rewardAddress",
          "type": "address"
        },
        {
          "indexed": true,
          "internalType": "uint256",
          "name": "amount",
          "type": "uint256"
        },
        {
          "indexed": true,
          "internalType": "bytes32",
          "name": "quoteHash",
          "type": "bytes32"
        }
      ],
      "name": "ChunkPaymentMade",
      "type": "event"
    },
    {
      "inputs": [],
      "name": "PAYMENT_TOKEN_ADDRESS",
      "outputs": [
        {
          "internalType": "address",
          "name": "",
          "type": "address"
        }
      ],
      "stateMutability": "view",
      "type": "function"
    },
    {
      "inputs": [],
      "name": "ROYALTIES_WALLET",
      "outputs": [
        {
          "internalType": "address",
          "name": "",
          "type": "address"
        }
      ],
      "stateMutability": "view",
      "type": "function"
    },
    {
      "inputs": [
        {
          "components": [
            {
              "internalType": "address",
              "name": "rewardAddress",
              "type": "address"
            },
            {
              "internalType": "uint256",
              "name": "amount",
              "type": "uint256"
            },
            {
              "internalType": "bytes32",
              "name": "quoteHash",
              "type": "bytes32"
            }
          ],
          "internalType": "struct ChunkPayments.ChunkPayment[]",
          "name": "chunkPayments",
          "type": "tuple[]"
        }
      ],
      "name": "submitChunkPayments",
      "outputs": [],
      "stateMutability": "nonpayable",
      "type": "function"
    }
  ],
  "bytecode": "0x60c060405234801561001057600080fd5b5060405161075b38038061075b83398101604081905261002f91610130565b6001600160a01b0382166100965760405162461bcd60e51b8152602060048201526024808201527f546f6b656e20616464726573732063616e6e6f74206265207a65726f206164646044820152637265737360e01b60648201526084015b60405180910390fd5b6001600160a01b0381166100fd5760405162461bcd60e51b815260206004820152602860248201527f466f756e646174696f6e2077616c6c65742063616e6e6f74206265207a65726f604482015267206164647265737360c01b606482015260840161008d565b6001600160a01b039182166080521660a052610163565b80516001600160a01b038116811461012b57600080fd5b919050565b6000806040838503121561014357600080fd5b61014c83610114565b915061015a60208401610114565b90509250929050565b60805160a0516105b96101a2600039600081816060015261018401526000818160a3015281816101cf015281816102d101526103d101526105b96000f3fe608060405234801561001057600080fd5b50600436106100415760003560e01c806305aa488a146100465780631c317b341461005b5780635c0d32861461009e575b600080fd5b610059610054366004610444565b6100c5565b005b6100827f000000000000000000000000000000000000000000000000000000000000000081565b6040516001600160a01b03909116815260200160405180910390f35b6100827f000000000000000000000000000000000000000000000000000000000000000081565b6000805b8281101561017d57368484838181106100e4576100e46104b9565b90506060020190506000600a82602001356100ff91906104cf565b905061010b81856104f1565b93506101283361011e6020850185610518565b84602001356101ae565b60408201356020830180359061013e9085610518565b6001600160a01b03167fa6df5ca64d2adbcdd26949b97238efc4e97dc7e5d23012ea53f92a24f005f95860405160405180910390a450506001016100c9565b506101a9337f0000000000000000000000000000000000000000000000000000000000000000836101ae565b505050565b6040516370a0823160e01b81526001600160a01b03848116600483015282917f0000000000000000000000000000000000000000000000000000000000000000909116906370a0823190602401602060405180830381865afa158015610218573d6000803e3d6000fd5b505050506040513d601f19601f8201168201806040525081019061023c9190610548565b101561029a5760405162461bcd60e51b815260206004820152602260248201527f57616c6c657420646f6573206e6f74206861766520656e6f75676820746f6b656044820152616e7360f01b60648201526084015b60405180910390fd5b6001600160a01b03831630146103a357604051636eb1769f60e11b81526001600160a01b03848116600483015230602483015282917f00000000000000000000000000000000000000000000000000000000000000009091169063dd62ed3e90604401602060405180830381865afa15801561031a573d6000803e3d6000fd5b505050506040513d601f19601f8201168201806040525081019061033e9190610548565b10156103a35760405162461bcd60e51b815260206004820152602e60248201527f436f6e7472616374206973206e6f7420616c6c6f77656420746f207370656e6460448201526d20656e6f75676820746f6b656e7360901b6064820152608401610291565b6040516323b872dd60e01b81526001600160a01b0384811660048301528381166024830152604482018390527f000000000000000000000000000000000000000000000000000000000000000016906323b872dd906064016020604051808303816000875af115801561041a573d6000803e3d6000fd5b505050506040513d601f19601f8201168201806040525081019061043e9190610561565b50505050565b6000806020838503121561045757600080fd5b823567ffffffffffffffff8082111561046f57600080fd5b818501915085601f83011261048357600080fd5b81358181111561049257600080fd5b8660206060830285010111156104a757600080fd5b60209290920196919550909350505050565b634e487b7160e01b600052603260045260246000fd5b6000826104ec57634e487b7160e01b600052601260045260246000fd5b500490565b8082018082111561051257634e487b7160e01b600052601160045260246000fd5b92915050565b60006020828403121561052a57600080fd5b81356001600160a01b038116811461054157600080fd5b9392505050565b60006020828403121561055a57600080fd5b5051919050565b60006020828403121561057357600080fd5b8151801515811461054157600080fdfea264697066735822122094c63e1f2c74507a86a2259c9b1cb5a11238724ae1164198b92142b5386eda6164736f6c63430008180033",
  "linkReferences": {},
  "deployedLinkReferences": {}
}