{
  "_format": "hh-sol-artifact-1",
  "contractName": "DataPayments",
  "sourceName": "contracts/DataPayments.sol",
  "abi": [
    {
      "inputs": [
        {
          "internalType": "address",
          "name": "_tokenAddress",
          "type": "address"
        }
      ],
      "stateMutability": "nonpayable",
      "type": "constructor"
    },
    {
      "anonymous": false,
      "inputs": [
        {
          "indexed": true,
          "internalType": "address",
          "name": "rewardsAddress",
          "type": "address"
        },
        {
          "indexed": true,
          "internalType": "uint256",
          "name": "amount",
          "type": "uint256"
        },
        {
          "indexed": true,
          "internalType": "bytes32",
          "name": "quoteHash",
          "type": "bytes32"
        }
      ],
      "name": "DataPaymentMade",
      "type": "event"
    },
    {
      "inputs": [],
      "name": "PAYMENT_TOKEN_ADDRESS",
      "outputs": [
        {
          "internalType": "address",
          "name": "",
          "type": "address"
        }
      ],
      "stateMutability": "view",
      "type": "function"
    },
    {
      "inputs": [
        {
          "components": [
            {
              "internalType": "address",
              "name": "rewardsAddress",
              "type": "address"
            },
            {
              "internalType": "uint256",
              "name": "amount",
              "type": "uint256"
            },
            {
              "internalType": "bytes32",
              "name": "quoteHash",
              "type": "bytes32"
            }
          ],
          "internalType": "struct DataPayments.DataPayment[]",
          "name": "dataPayments",
          "type": "tuple[]"
        }
      ],
      "name": "submitDataPayments",
      "outputs": [],
      "stateMutability": "nonpayable",
      "type": "function"
    }
  ],
  "bytecode": "0x60a060405234801561001057600080fd5b506040516105f73803806105f783398101604081905261002f916100a6565b6001600160a01b0381166100955760405162461bcd60e51b8152602060048201526024808201527f546f6b656e20616464726573732063616e6e6f74206265207a65726f206164646044820152637265737360e01b606482015260840160405180910390fd5b6001600160a01b03166080526100d6565b6000602082840312156100b857600080fd5b81516001600160a01b03811681146100cf57600080fd5b9392505050565b6080516104f26101056000396000818160400152818161015101528181610253015261035301526104f26000f3fe608060405234801561001057600080fd5b50600436106100365760003560e01c80635c0d32861461003b578063dee1dfa01461007e575b600080fd5b6100627f000000000000000000000000000000000000000000000000000000000000000081565b6040516001600160a01b03909116815260200160405180910390f35b61009161008c3660046103c6565b610093565b005b60005b8181101561012b57368383838181106100b1576100b161043b565b6060029190910191506100d79050336100cd6020840184610451565b8360200135610130565b6040810135602082018035906100ed9084610451565b6001600160a01b03167ff998960b1c6f0e0e89b7bbe6b6fbf3e03e6f08eee5b8430877d8adb8e149d58060405160405180910390a450600101610096565b505050565b6040516370a0823160e01b81526001600160a01b03848116600483015282917f0000000000000000000000000000000000000000000000000000000000000000909116906370a0823190602401602060405180830381865afa15801561019a573d6000803e3d6000fd5b505050506040513d601f19601f820116820180604052508101906101be9190610481565b101561021c5760405162461bcd60e51b815260206004820152602260248201527f57616c6c657420646f6573206e6f74206861766520656e6f75676820746f6b656044820152616e7360f01b60648201526084015b60405180910390fd5b6001600160a01b038316301461032557604051636eb1769f60e11b81526001600160a01b03848116600483015230602483015282917f00000000000000000000000000000000000000000000000000000000000000009091169063dd62ed3e90604401602060405180830381865afa15801561029c573d6000803e3d6000fd5b505050506040513d601f19601f820116820180604052508101906102c09190610481565b10156103255760405162461bcd60e51b815260206004820152602e60248201527f436f6e7472616374206973206e6f7420616c6c6f77656420746f207370656e6460448201526d20656e6f75676820746f6b656e7360901b6064820152608401610213565b6040516323b872dd60e01b81526001600160a01b0384811660048301528381166024830152604482018390527f000000000000000000000000000000000000000000000000000000000000000016906323b872dd906064016020604051808303816000875af115801561039c573d6000803e3d6000fd5b505050506040513d601f19601f820116820180604052508101906103c0919061049a565b50505050565b600080602083850312156103d957600080fd5b823567ffffffffffffffff808211156103f157600080fd5b818501915085601f83011261040557600080fd5b81358181111561041457600080fd5b86602060608302850101111561042957600080fd5b60209290920196919550909350505050565b634e487b7160e01b600052603260045260246000fd5b60006020828403121561046357600080fd5b81356001600160a01b038116811461047a57600080fd5b9392505050565b60006020828403121561049357600080fd5b5051919050565b6000602082840312156104ac57600080fd5b8151801515811461047a57600080fdfea26469706673582212206f3a305284dc687832455d7d49b202dcf22b32d76aff5ccd14c3c8539596bcf464736f6c63430008180033",
  "linkReferences": {},
  "deployedLinkReferences": {}
}