{
  "_format": "hh-sol-artifact-1",
  "contractName": "PaymentVault",
  "sourceName": "contracts/PaymentVaultNoProxy.sol",
  "abi": [
    {
      "inputs": [
        {
          "internalType": "contract IERC20",
          "name": "_antToken",
          "type": "address"
        },
        {
          "internalType": "uint256",
          "name": "_batchLimit",
          "type": "uint256"
        }
      ],
      "stateMutability": "nonpayable",
      "type": "constructor"
    },
    {
      "inputs": [
        {
          "internalType": "address",
          "name": "target",
          "type": "address"
        }
      ],
      "name": "AddressEmptyCode",
      "type": "error"
    },
    {
      "inputs": [
        {
          "internalType": "address",
          "name": "account",
          "type": "address"
        }
      ],
      "name": "AddressInsufficientBalance",
      "type": "error"
    },
    {
      "inputs": [],
      "name": "AntTokenNull",
      "type": "error"
    },
    {
      "inputs": [],
      "name": "BatchLimitExceeded",
      "type": "error"
    },
    {
      "inputs": [],
      "name": "FailedInnerCall",
      "type": "error"
    },
    {
      "inputs": [],
      "name": "InvalidInputLength",
      "type": "error"
    },
    {
      "inputs": [
        {
          "internalType": "address",
          "name": "token",
          "type": "address"
        }
      ],
      "name": "SafeERC20FailedOperation",
      "type": "error"
    },
    {
      "anonymous": false,
      "inputs": [
        {
          "indexed": true,
          "internalType": "address",
          "name": "rewardsAddress",
          "type": "address"
        },
        {
          "indexed": true,
          "internalType": "uint256",
          "name": "amount",
          "type": "uint256"
        },
        {
          "indexed": true,
          "internalType": "bytes32",
          "name": "quoteHash",
          "type": "bytes32"
        }
      ],
      "name": "DataPaymentMade",
      "type": "event"
    },
    {
      "inputs": [],
      "name": "antToken",
      "outputs": [
        {
          "internalType": "contract IERC20",
          "name": "",
          "type": "address"
        }
      ],
      "stateMutability": "view",
      "type": "function"
    },
    {
      "inputs": [],
      "name": "batchLimit",
      "outputs": [
        {
          "internalType": "uint256",
          "name": "",
          "type": "uint256"
        }
      ],
      "stateMutability": "view",
      "type": "function"
    },
    {
      "inputs": [
        {
          "components": [
            {
              "internalType": "uint256",
              "name": "closeRecordsStored",
              "type": "uint256"
            },
            {
              "internalType": "uint256",
              "name": "maxRecords",
              "type": "uint256"
            },
            {
              "internalType": "uint256",
              "name": "receivedPaymentCount",
              "type": "uint256"
            },
            {
              "internalType": "uint256",
              "name": "liveTime",
              "type": "uint256"
            },
            {
              "internalType": "uint256",
              "name": "networkDensity",
              "type": "uint256"
            },
            {
              "internalType": "uint256",
              "name": "networkSize",
              "type": "uint256"
            }
          ],
          "internalType": "struct IPaymentVault.QuotingMetrics[]",
          "name": "",
          "type": "tuple[]"
        }
      ],
      "name": "getQuote",
      "outputs": [
        {
          "internalType": "uint256[]",
          "name": "prices",
          "type": "uint256[]"
        }
      ],
      "stateMutability": "pure",
      "type": "function"
    },
    {
      "inputs": [
        {
          "components": [
            {
              "internalType": "address",
              "name": "rewardsAddress",
              "type": "address"
            },
            {
              "internalType": "uint256",
              "name": "amount",
              "type": "uint256"
            },
            {
              "internalType": "bytes32",
              "name": "quoteHash",
              "type": "bytes32"
            }
          ],
          "internalType": "struct IPaymentVault.DataPayment[]",
          "name": "_payments",
          "type": "tuple[]"
        }
      ],
      "name": "payForQuotes",
      "outputs": [],
      "stateMutability": "nonpayable",
      "type": "function"
    },
    {
      "inputs": [
        {
          "internalType": "bytes32",
          "name": "",
          "type": "bytes32"
        }
      ],
      "name": "payments",
      "outputs": [
        {
          "internalType": "address",
          "name": "rewardsAddress",
          "type": "address"
        },
        {
          "internalType": "uint256",
          "name": "amount",
          "type": "uint256"
        },
        {
          "internalType": "bytes32",
          "name": "quoteHash",
          "type": "bytes32"
        }
      ],
      "stateMutability": "view",
      "type": "function"
    },
    {
      "inputs": [],
      "name": "requiredPaymentVerificationLength",
      "outputs": [
        {
          "internalType": "uint256",
          "name": "",
          "type": "uint256"
        }
      ],
      "stateMutability": "view",
      "type": "function"
    },
    {
      "inputs": [
        {
          "components": [
            {
              "components": [
                {
                  "internalType": "uint256",
                  "name": "closeRecordsStored",
                  "type": "uint256"
                },
                {
                  "internalType": "uint256",
                  "name": "maxRecords",
                  "type": "uint256"
                },
                {
                  "internalType": "uint256",
                  "name": "receivedPaymentCount",
                  "type": "uint256"
                },
                {
                  "internalType": "uint256",
                  "name": "liveTime",
                  "type": "uint256"
                },
                {
                  "internalType": "uint256",
                  "name": "networkDensity",
                  "type": "uint256"
                },
                {
                  "internalType": "uint256",
                  "name": "networkSize",
                  "type": "uint256"
                }
              ],
              "internalType": "struct IPaymentVault.QuotingMetrics",
              "name": "metrics",
              "type": "tuple"
            },
            {
              "internalType": "address",
              "name": "rewardsAddress",
              "type": "address"
            },
            {
              "internalType": "bytes32",
              "name": "quoteHash",
              "type": "bytes32"
            }
          ],
          "internalType": "struct IPaymentVault.PaymentVerification[]",
          "name": "_payments",
          "type": "tuple[]"
        }
      ],
      "name": "verifyPayment",
      "outputs": [
        {
          "components": [
            {
              "internalType": "bytes32",
              "name": "quoteHash",
              "type": "bytes32"
            },
            {
              "internalType": "uint256",
              "name": "amountPaid",
              "type": "uint256"
            },
            {
              "internalType": "bool",
              "name": "isValid",
              "type": "bool"
            }
          ],
          "internalType": "struct IPaymentVault.PaymentVerificationResult[3]",
          "name": "verificationResults",
          "type": "tuple[3]"
        }
      ],
      "stateMutability": "view",
      "type": "function"
    }
  ],
  "bytecode": "0x6080604052348015600f57600080fd5b50604051610dce380380610dce833981016040819052602c91607f565b6001600160a01b038216605257604051632d06160b60e21b815260040160405180910390fd5b600180546001600160a01b0319166001600160a01b039390931692909217909155600055600560035560b7565b60008060408385031215609157600080fd5b82516001600160a01b038116811460a757600080fd5b6020939093015192949293505050565b610d08806100c66000396000f3fe608060405234801561001057600080fd5b506004361061007d5760003560e01c806380a38d971161005b57806380a38d9714610128578063b6c2141b14610148578063c7170bb61461015d578063f69c32cd1461016657600080fd5b80630716326d14610082578063474740b1146100e65780634ec42e8e146100fd575b600080fd5b6100bc6100903660046108fc565b60026020819052600091825260409091208054600182015491909201546001600160a01b039092169183565b604080516001600160a01b0390941684526020840192909252908201526060015b60405180910390f35b6100ef60005481565b6040519081526020016100dd565b600154610110906001600160a01b031681565b6040516001600160a01b0390911681526020016100dd565b61013b610136366004610915565b610186565b6040516100dd919061098c565b61015b6101563660046109cf565b6101d3565b005b6100ef60035481565b610179610174366004610a36565b6102c3565b6040516100dd9190610a9d565b60408051600180825281830190925260609160009190602080830190803683370190505090506001816000815181106101c1576101c1610aed565b60209081029190910101529392505050565b60005481908111156101f857604051630d67f41160e21b815260040160405180910390fd5b60005b818110156102bd573684848381811061021657610216610aed565b60600291909101915061024a9050336102326020840184610b28565b6001546001600160a01b03169190602085013561045c565b604080820135600090815260026020522081906102678282610b45565b505060408101356020820180359061027f9084610b28565b6001600160a01b03167ff998960b1c6f0e0e89b7bbe6b6fbf3e03e6f08eee5b8430877d8adb8e149d58060405160405180910390a4506001016101fb565b50505050565b6102cb610838565b60035482146102ed57604051637db491eb60e01b815260040160405180910390fd5b60006102f984846104b6565b905060005b60038110156104545760006002600084846003811061031f5761031f610aed565b602090810291909101516040908101518352828201939093529082016000908120835160608101855281546001600160a01b0316815260018201549381018490526002909101549381018490529350911515919015159085856003811061038857610388610aed565b6020020151602001516001600160a01b031684600001516001600160a01b03161480156103d9575060008686600381106103c4576103c4610aed565b6020020151602001516001600160a01b031614155b9050600060405180606001604052808888600381106103fa576103fa610aed565b60200201516040015181526020018660200151815260200185801561041c5750845b80156104255750835b1515905290508088876003811061043e5761043e610aed565b60200201525050600190930192506102fe915050565b505092915050565b604080516001600160a01b0385811660248301528416604482015260648082018490528251808303909101815260849091019091526020810180516001600160e01b03166323b872dd60e01b1790526102bd908590610691565b6104be610877565b60005b8281101561068a576000600260008686858181106104e1576104e1610aed565b9050610100020160e0013581526020019081526020016000206040518060600160405290816000820160009054906101000a90046001600160a01b03166001600160a01b03166001600160a01b03168152602001600182015481526020016002820154815250509050600260008460006003811061056157610561610aed565b602002015160400151815260200190815260200160002060010154816020015111156105cd576020830180516040850152835190528484838181106105a8576105a8610aed565b905061010002018036038101906105bf9190610beb565b8360005b6020020152610681565b602080840151604090810151600090815260028352206001015490820151111561062c576020830151604084015284848381811061060d5761060d610aed565b905061010002018036038101906106249190610beb565b8360016105c3565b604080840151810151600090815260026020908152919020600101549082015111156106815784848381811061066457610664610aed565b9050610100020180360381019061067b9190610beb565b60408401525b506001016104c1565b5092915050565b60006106a66001600160a01b038416836106fe565b905080516000141580156106cb5750808060200190518101906106c99190610c81565b155b156106f957604051635274afe760e01b81526001600160a01b03841660048201526024015b60405180910390fd5b505050565b606061070c83836000610713565b9392505050565b6060814710156107385760405163cd78605960e01b81523060048201526024016106f0565b600080856001600160a01b031684866040516107549190610ca3565b60006040518083038185875af1925050503d8060008114610791576040519150601f19603f3d011682016040523d82523d6000602084013e610796565b606091505b50915091506107a68683836107b0565b9695505050505050565b6060826107c5576107c08261080c565b61070c565b81511580156107dc57506001600160a01b0384163b155b1561080557604051639996b31560e01b81526001600160a01b03851660048201526024016106f0565b508061070c565b80511561081c5780518082602001fd5b604051630a12f52160e11b815260040160405180910390fd5b50565b60405180606001604052806003905b60408051606081018252600080825260208083018290529282015282526000199092019101816108475790505090565b60405180606001604052806003905b61088e6108a4565b8152602001906001900390816108865790505090565b60405180606001604052806108e86040518060c001604052806000815260200160008152602001600081526020016000815260200160008152602001600081525090565b815260006020820181905260409091015290565b60006020828403121561090e57600080fd5b5035919050565b6000806020838503121561092857600080fd5b823567ffffffffffffffff81111561093f57600080fd5b8301601f8101851361095057600080fd5b803567ffffffffffffffff81111561096757600080fd5b85602060c08302840101111561097c57600080fd5b6020919091019590945092505050565b602080825282518282018190526000918401906040840190835b818110156109c45783518352602093840193909201916001016109a6565b509095945050505050565b600080602083850312156109e257600080fd5b823567ffffffffffffffff8111156109f957600080fd5b8301601f81018513610a0a57600080fd5b803567ffffffffffffffff811115610a2157600080fd5b85602060608302840101111561097c57600080fd5b60008060208385031215610a4957600080fd5b823567ffffffffffffffff811115610a6057600080fd5b8301601f81018513610a7157600080fd5b803567ffffffffffffffff811115610a8857600080fd5b8560208260081b840101111561097c57600080fd5b6101208101818360005b6003811015610ae4578151805184526020810151602085015260408101511515604085015250606083019250602082019150600181019050610aa7565b50505092915050565b634e487b7160e01b600052603260045260246000fd5b6001600160a01b038116811461083557600080fd5b8035610b2381610b03565b919050565b600060208284031215610b3a57600080fd5b813561070c81610b03565b8135610b5081610b03565b81546001600160a01b0319166001600160a01b039190911617815560208201356001820155604090910135600290910155565b6040516060810167ffffffffffffffff81118282101715610bb457634e487b7160e01b600052604160045260246000fd5b60405290565b60405160c0810167ffffffffffffffff81118282101715610bb457634e487b7160e01b600052604160045260246000fd5b600081830361010081128015610c0057600080fd5b506000610c0b610b83565b60c0831215610c18578182fd5b610c20610bba565b853581526020808701359082015260408087013590820152606080870135908201526080808701359082015260a080870135908201528082529250610c6760c08601610b18565b602082015260e09490940135604085015250919392505050565b600060208284031215610c9357600080fd5b8151801515811461070c57600080fd5b6000825160005b81811015610cc45760208186018101518583015201610caa565b50600092019182525091905056fea26469706673582212207d1a9d88b0ba14ca908470a69ea19a09d2c7617056be2605039bc4d121f4fc4b64736f6c634300081c0033",
  "linkReferences": {},
  "deployedLinkReferences": {}
}