{
  "_format": "hh-sol-artifact-1",
  "contractName": "PaymentVaultNoProxy",
  "sourceName": "contracts/PaymentVaultNoProxy.sol",
  "abi": [
    {
      "inputs": [
        {
          "internalType": "contract IERC20",
          "name": "_antToken",
          "type": "address"
        },
        {
          "internalType": "uint256",
          "name": "_batchLimit",
          "type": "uint256"
        }
      ],
      "stateMutability": "nonpayable",
      "type": "constructor"
    },
    {
      "inputs": [
        {
          "internalType": "address",
          "name": "target",
          "type": "address"
        }
      ],
      "name": "AddressEmptyCode",
      "type": "error"
    },
    {
      "inputs": [
        {
          "internalType": "address",
          "name": "account",
          "type": "address"
        }
      ],
      "name": "AddressInsufficientBalance",
      "type": "error"
    },
    {
      "inputs": [],
      "name": "AntTokenNull",
      "type": "error"
    },
    {
      "inputs": [],
      "name": "BatchLimitExceeded",
      "type": "error"
    },
    {
      "inputs": [],
      "name": "FailedInnerCall",
      "type": "error"
    },
    {
      "inputs": [],
      "name": "InvalidInputLength",
      "type": "error"
    },
    {
      "inputs": [
        {
          "internalType": "address",
          "name": "token",
          "type": "address"
        }
      ],
      "name": "SafeERC20FailedOperation",
      "type": "error"
    },
    {
      "anonymous": false,
      "inputs": [
        {
          "indexed": true,
          "internalType": "address",
          "name": "rewardsAddress",
          "type": "address"
        },
        {
          "indexed": true,
          "internalType": "uint256",
          "name": "amount",
          "type": "uint256"
        },
        {
          "indexed": true,
          "internalType": "bytes32",
          "name": "quoteHash",
          "type": "bytes32"
        }
      ],
      "name": "DataPaymentMade",
      "type": "event"
    },
    {
      "inputs": [],
      "name": "antToken",
      "outputs": [
        {
          "internalType": "contract IERC20",
          "name": "",
          "type": "address"
        }
      ],
      "stateMutability": "view",
      "type": "function"
    },
    {
      "inputs": [],
      "name": "batchLimit",
      "outputs": [
        {
          "internalType": "uint256",
          "name": "",
          "type": "uint256"
        }
      ],
      "stateMutability": "view",
      "type": "function"
    },
    {
      "inputs": [
        {
          "components": [
            {
              "internalType": "uint256",
              "name": "closeRecordsStored",
              "type": "uint256"
            },
            {
              "internalType": "uint256",
              "name": "maxRecords",
              "type": "uint256"
            },
            {
              "internalType": "uint256",
              "name": "receivedPaymentCount",
              "type": "uint256"
            },
            {
              "internalType": "uint256",
              "name": "liveTime",
              "type": "uint256"
            },
            {
              "internalType": "uint256",
              "name": "networkDensity",
              "type": "uint256"
            },
            {
              "internalType": "uint256",
              "name": "networkSize",
              "type": "uint256"
            }
          ],
          "internalType": "struct IPaymentVault.QuotingMetrics",
          "name": "",
          "type": "tuple"
        }
      ],
      "name": "getQuote",
      "outputs": [
        {
          "internalType": "uint256",
          "name": "price",
          "type": "uint256"
        }
      ],
      "stateMutability": "pure",
      "type": "function"
    },
    {
      "inputs": [
        {
          "components": [
            {
              "internalType": "address",
              "name": "rewardsAddress",
              "type": "address"
            },
            {
              "internalType": "uint256",
              "name": "amount",
              "type": "uint256"
            },
            {
              "internalType": "bytes32",
              "name": "quoteHash",
              "type": "bytes32"
            }
          ],
          "internalType": "struct IPaymentVault.DataPayment[]",
          "name": "_payments",
          "type": "tuple[]"
        }
      ],
      "name": "payForQuotes",
      "outputs": [],
      "stateMutability": "nonpayable",
      "type": "function"
    },
    {
      "inputs": [
        {
          "internalType": "bytes32",
          "name": "",
          "type": "bytes32"
        }
      ],
      "name": "payments",
      "outputs": [
        {
          "internalType": "address",
          "name": "rewardsAddress",
          "type": "address"
        },
        {
          "internalType": "uint256",
          "name": "amount",
          "type": "uint256"
        },
        {
          "internalType": "bytes32",
          "name": "quoteHash",
          "type": "bytes32"
        }
      ],
      "stateMutability": "view",
      "type": "function"
    },
    {
      "inputs": [],
      "name": "requiredPaymentVerificationLength",
      "outputs": [
        {
          "internalType": "uint256",
          "name": "",
          "type": "uint256"
        }
      ],
      "stateMutability": "view",
      "type": "function"
    },
    {
      "inputs": [
        {
          "components": [
            {
              "components": [
                {
                  "internalType": "uint256",
                  "name": "closeRecordsStored",
                  "type": "uint256"
                },
                {
                  "internalType": "uint256",
                  "name": "maxRecords",
                  "type": "uint256"
                },
                {
                  "internalType": "uint256",
                  "name": "receivedPaymentCount",
                  "type": "uint256"
                },
                {
                  "internalType": "uint256",
                  "name": "liveTime",
                  "type": "uint256"
                },
                {
                  "internalType": "uint256",
                  "name": "networkDensity",
                  "type": "uint256"
                },
                {
                  "internalType": "uint256",
                  "name": "networkSize",
                  "type": "uint256"
                }
              ],
              "internalType": "struct IPaymentVault.QuotingMetrics",
              "name": "metrics",
              "type": "tuple"
            },
            {
              "components": [
                {
                  "internalType": "address",
                  "name": "rewardsAddress",
                  "type": "address"
                },
                {
                  "internalType": "uint256",
                  "name": "amount",
                  "type": "uint256"
                },
                {
                  "internalType": "bytes32",
                  "name": "quoteHash",
                  "type": "bytes32"
                }
              ],
              "internalType": "struct IPaymentVault.DataPayment",
              "name": "dataPayment",
              "type": "tuple"
            }
          ],
          "internalType": "struct IPaymentVault.PaymentVerification[]",
          "name": "_payments",
          "type": "tuple[]"
        }
      ],
      "name": "verifyPayment",
      "outputs": [
        {
          "components": [
            {
              "internalType": "bytes32",
              "name": "quoteHash",
              "type": "bytes32"
            },
            {
              "internalType": "uint256",
              "name": "amountPaid",
              "type": "uint256"
            },
            {
              "internalType": "bool",
              "name": "isValid",
              "type": "bool"
            }
          ],
          "internalType": "struct IPaymentVault.PaymentVerificationResult[3]",
          "name": "verificationResults",
          "type": "tuple[3]"
        }
      ],
      "stateMutability": "view",
      "type": "function"
    }
  ],
  "bytecode": "0x6080604052348015600f57600080fd5b50604051610cce380380610cce833981016040819052602c91607f565b6001600160a01b038216605257604051632d06160b60e21b815260040160405180910390fd5b600180546001600160a01b0319166001600160a01b039390931692909217909155600055600560035560b7565b60008060408385031215609157600080fd5b82516001600160a01b038116811460a757600080fd5b6020939093015192949293505050565b610c08806100c66000396000f3fe608060405234801561001057600080fd5b506004361061007d5760003560e01c80634ec42e8e1161005b5780634ec42e8e14610111578063b6c2141b1461013c578063bcb2c1da14610151578063c7170bb61461017157600080fd5b80630716326d146100825780633c150bf2146100e6578063474740b114610108575b600080fd5b6100bc61009036600461082f565b60026020819052600091825260409091208054600182015491909201546001600160a01b039092169183565b604080516001600160a01b0390941684526020840192909252908201526060015b60405180910390f35b6100fa6100f4366004610848565b50600190565b6040519081526020016100dd565b6100fa60005481565b600154610124906001600160a01b031681565b6040516001600160a01b0390911681526020016100dd565b61014f61014a366004610863565b61017a565b005b61016461015f3660046108da565b61026a565b6040516100dd9190610942565b6100fa60035481565b600054819081111561019f57604051630d67f41160e21b815260040160405180910390fd5b60005b8181101561026457368484838181106101bd576101bd610992565b6060029190910191506101f19050336101d960208401846109bd565b6001546001600160a01b0316919060208501356103f5565b6040808201356000908152600260205220819061020e82826109da565b505060408101356020820180359061022690846109bd565b6001600160a01b03167ff998960b1c6f0e0e89b7bbe6b6fbf3e03e6f08eee5b8430877d8adb8e149d58060405160405180910390a4506001016101a2565b50505050565b61027261075c565b600354821461029457604051637db491eb60e01b815260040160405180910390fd5b60006102a0848461044f565b905060005b60038110156103ed576000600260008484600381106102c6576102c6610992565b602090810291909101518101516040908101518352828201939093529082016000908120835160608101855281546001600160a01b031681526001820154938101939093526002015492820192909252915083836003811061032a5761032a610992565b602002015160200151602001518260200151149050600084846003811061035357610353610992565b602002015160200151600001516001600160a01b031683600001516001600160a01b03161490506000604051806060016040528087876003811061039957610399610992565b602002015160200151604001518152602001856020015181526020018480156103bf5750835b151590529050808786600381106103d8576103d8610992565b60200201525050600190920191506102a59050565b505092915050565b604080516001600160a01b0385811660248301528416604482015260648082018490528251808303909101815260849091019091526020810180516001600160e01b03166323b872dd60e01b1790526102649085906105b5565b61045761079b565b60005b828110156105ae578151602090810151015184848381811061047e5761047e610992565b9050610120020160c0016020013511156104d8576020820180516040840152825190528383828181106104b3576104b3610992565b905061012002018036038101906104ca9190610af1565b8260005b60200201526105a6565b60208083015181015101518484838181106104f5576104f5610992565b9050610120020160c001602001351115610544576020820151604083015283838281811061052557610525610992565b9050610120020180360381019061053c9190610af1565b8260016104ce565b6040820151602090810151015184848381811061056357610563610992565b9050610120020160c0016020013511156105a65783838281811061058957610589610992565b905061012002018036038101906105a09190610af1565b60408301525b60010161045a565b5092915050565b60006105ca6001600160a01b03841683610622565b905080516000141580156105ef5750808060200190518101906105ed9190610b81565b155b1561061d57604051635274afe760e01b81526001600160a01b03841660048201526024015b60405180910390fd5b505050565b606061063083836000610637565b9392505050565b60608147101561065c5760405163cd78605960e01b8152306004820152602401610614565b600080856001600160a01b031684866040516106789190610ba3565b60006040518083038185875af1925050503d80600081146106b5576040519150601f19603f3d011682016040523d82523d6000602084013e6106ba565b606091505b50915091506106ca8683836106d4565b9695505050505050565b6060826106e9576106e482610730565b610630565b815115801561070057506001600160a01b0384163b155b1561072957604051639996b31560e01b81526001600160a01b0385166004820152602401610614565b5080610630565b8051156107405780518082602001fd5b604051630a12f52160e11b815260040160405180910390fd5b50565b60405180606001604052806003905b604080516060810182526000808252602080830182905292820152825260001990920191018161076b5790505090565b60405180606001604052806003905b6107b26107c8565b8152602001906001900390816107aa5790505090565b604051806040016040528061080c6040518060c001604052806000815260200160008152602001600081526020016000815260200160008152602001600081525090565b815260408051606081018252600080825260208281018290529282015291015290565b60006020828403121561084157600080fd5b5035919050565b600060c082840312801561085b57600080fd5b509092915050565b6000806020838503121561087657600080fd5b823567ffffffffffffffff81111561088d57600080fd5b8301601f8101851361089e57600080fd5b803567ffffffffffffffff8111156108b557600080fd5b8560206060830284010111156108ca57600080fd5b6020919091019590945092505050565b600080602083850312156108ed57600080fd5b823567ffffffffffffffff81111561090457600080fd5b8301601f8101851361091557600080fd5b803567ffffffffffffffff81111561092c57600080fd5b856020610120830284010111156108ca57600080fd5b6101208101818360005b600381101561098957815180518452602081015160208501526040810151151560408501525060608301925060208201915060018101905061094c565b50505092915050565b634e487b7160e01b600052603260045260246000fd5b6001600160a01b038116811461075957600080fd5b6000602082840312156109cf57600080fd5b8135610630816109a8565b81356109e5816109a8565b81546001600160a01b0319166001600160a01b039190911617815560208201356001820155604090910135600290910155565b6040805190810167ffffffffffffffff81118282101715610a4957634e487b7160e01b600052604160045260246000fd5b60405290565b60405160c0810167ffffffffffffffff81118282101715610a4957634e487b7160e01b600052604160045260246000fd5b600060608284031215610a9257600080fd5b6040516060810167ffffffffffffffff81118282101715610ac357634e487b7160e01b600052604160045260246000fd5b6040529050808235610ad4816109a8565b815260208381013590820152604092830135920191909152919050565b600081830361012081128015610b0657600080fd5b506000610b11610a18565b60c0831215610b1e578182fd5b610b26610a4f565b853581526020808701359082015260408087013590820152606080870135908201526080808701359082015260a0808701359082018190528183529093509150610b738660c08701610a80565b602082015295945050505050565b600060208284031215610b9357600080fd5b8151801515811461063057600080fd5b6000825160005b81811015610bc45760208186018101518583015201610baa565b50600092019182525091905056fea2646970667358221220fd6ef361aaba52d0f9503b51aea1d0b7a8363a9a66c9502aa7b931f1f44c507f64736f6c634300081c0033",
  "linkReferences": {},
  "deployedLinkReferences": {}
}