{
  "_format": "hh-sol-artifact-1",
  "contractName": "PaymentVaultNoProxy",
  "sourceName": "contracts/PaymentVaultNoProxy.sol",
  "abi": [
    {
      "inputs": [
        {
          "internalType": "contract IERC20",
          "name": "_antToken",
          "type": "address"
        },
        {
          "internalType": "uint256",
          "name": "_batchLimit",
          "type": "uint256"
        }
      ],
      "stateMutability": "nonpayable",
      "type": "constructor"
    },
    {
      "inputs": [
        {
          "internalType": "address",
          "name": "target",
          "type": "address"
        }
      ],
      "name": "AddressEmptyCode",
      "type": "error"
    },
    {
      "inputs": [
        {
          "internalType": "address",
          "name": "account",
          "type": "address"
        }
      ],
      "name": "AddressInsufficientBalance",
      "type": "error"
    },
    {
      "inputs": [],
      "name": "AntTokenNull",
      "type": "error"
    },
    {
      "inputs": [],
      "name": "BatchLimitExceeded",
      "type": "error"
    },
    {
      "inputs": [],
      "name": "FailedInnerCall",
      "type": "error"
    },
    {
      "inputs": [],
      "name": "InvalidInputLength",
      "type": "error"
    },
    {
      "inputs": [
        {
          "internalType": "address",
          "name": "token",
          "type": "address"
        }
      ],
      "name": "SafeERC20FailedOperation",
      "type": "error"
    },
    {
      "anonymous": false,
      "inputs": [
        {
          "indexed": true,
          "internalType": "address",
          "name": "rewardsAddress",
          "type": "address"
        },
        {
          "indexed": true,
          "internalType": "uint256",
          "name": "amount",
          "type": "uint256"
        },
        {
          "indexed": true,
          "internalType": "bytes32",
          "name": "quoteHash",
          "type": "bytes32"
        }
      ],
      "name": "DataPaymentMade",
      "type": "event"
    },
    {
      "inputs": [],
      "name": "antToken",
      "outputs": [
        {
          "internalType": "contract IERC20",
          "name": "",
          "type": "address"
        }
      ],
      "stateMutability": "view",
      "type": "function"
    },
    {
      "inputs": [],
      "name": "batchLimit",
      "outputs": [
        {
          "internalType": "uint256",
          "name": "",
          "type": "uint256"
        }
      ],
      "stateMutability": "view",
      "type": "function"
    },
    {
      "inputs": [
        {
          "components": [
            {
              "internalType": "uint256",
              "name": "closeRecordsStored",
              "type": "uint256"
            },
            {
              "internalType": "uint256",
              "name": "maxRecords",
              "type": "uint256"
            },
            {
              "internalType": "uint256",
              "name": "receivedPaymentCount",
              "type": "uint256"
            },
            {
              "internalType": "uint256",
              "name": "liveTime",
              "type": "uint256"
            },
            {
              "internalType": "uint256",
              "name": "networkDensity",
              "type": "uint256"
            },
            {
              "internalType": "uint256",
              "name": "networkSize",
              "type": "uint256"
            }
          ],
          "internalType": "struct IPaymentVault.QuotingMetrics[]",
          "name": "",
          "type": "tuple[]"
        }
      ],
      "name": "getQuote",
      "outputs": [
        {
          "internalType": "uint256[]",
          "name": "prices",
          "type": "uint256[]"
        }
      ],
      "stateMutability": "pure",
      "type": "function"
    },
    {
      "inputs": [
        {
          "components": [
            {
              "internalType": "address",
              "name": "rewardsAddress",
              "type": "address"
            },
            {
              "internalType": "uint256",
              "name": "amount",
              "type": "uint256"
            },
            {
              "internalType": "bytes32",
              "name": "quoteHash",
              "type": "bytes32"
            }
          ],
          "internalType": "struct IPaymentVault.DataPayment[]",
          "name": "_payments",
          "type": "tuple[]"
        }
      ],
      "name": "payForQuotes",
      "outputs": [],
      "stateMutability": "nonpayable",
      "type": "function"
    },
    {
      "inputs": [
        {
          "internalType": "bytes32",
          "name": "",
          "type": "bytes32"
        }
      ],
      "name": "payments",
      "outputs": [
        {
          "internalType": "address",
          "name": "rewardsAddress",
          "type": "address"
        },
        {
          "internalType": "uint256",
          "name": "amount",
          "type": "uint256"
        },
        {
          "internalType": "bytes32",
          "name": "quoteHash",
          "type": "bytes32"
        }
      ],
      "stateMutability": "view",
      "type": "function"
    },
    {
      "inputs": [],
      "name": "requiredPaymentVerificationLength",
      "outputs": [
        {
          "internalType": "uint256",
          "name": "",
          "type": "uint256"
        }
      ],
      "stateMutability": "view",
      "type": "function"
    },
    {
      "inputs": [
        {
          "components": [
            {
              "components": [
                {
                  "internalType": "uint256",
                  "name": "closeRecordsStored",
                  "type": "uint256"
                },
                {
                  "internalType": "uint256",
                  "name": "maxRecords",
                  "type": "uint256"
                },
                {
                  "internalType": "uint256",
                  "name": "receivedPaymentCount",
                  "type": "uint256"
                },
                {
                  "internalType": "uint256",
                  "name": "liveTime",
                  "type": "uint256"
                },
                {
                  "internalType": "uint256",
                  "name": "networkDensity",
                  "type": "uint256"
                },
                {
                  "internalType": "uint256",
                  "name": "networkSize",
                  "type": "uint256"
                }
              ],
              "internalType": "struct IPaymentVault.QuotingMetrics",
              "name": "metrics",
              "type": "tuple"
            },
            {
              "components": [
                {
                  "internalType": "address",
                  "name": "rewardsAddress",
                  "type": "address"
                },
                {
                  "internalType": "uint256",
                  "name": "amount",
                  "type": "uint256"
                },
                {
                  "internalType": "bytes32",
                  "name": "quoteHash",
                  "type": "bytes32"
                }
              ],
              "internalType": "struct IPaymentVault.DataPayment",
              "name": "dataPayment",
              "type": "tuple"
            }
          ],
          "internalType": "struct IPaymentVault.PaymentVerification[]",
          "name": "_payments",
          "type": "tuple[]"
        }
      ],
      "name": "verifyPayment",
      "outputs": [
        {
          "components": [
            {
              "internalType": "bytes32",
              "name": "quoteHash",
              "type": "bytes32"
            },
            {
              "internalType": "uint256",
              "name": "amountPaid",
              "type": "uint256"
            },
            {
              "internalType": "bool",
              "name": "isValid",
              "type": "bool"
            }
          ],
          "internalType": "struct IPaymentVault.PaymentVerificationResult[3]",
          "name": "verificationResults",
          "type": "tuple[3]"
        }
      ],
      "stateMutability": "view",
      "type": "function"
    }
  ],
  "bytecode": "0x6080604052348015600f57600080fd5b50604051610db6380380610db6833981016040819052602c91607f565b6001600160a01b038216605257604051632d06160b60e21b815260040160405180910390fd5b600180546001600160a01b0319166001600160a01b039390931692909217909155600055600560035560b7565b60008060408385031215609157600080fd5b82516001600160a01b038116811460a757600080fd5b6020939093015192949293505050565b610cf0806100c66000396000f3fe608060405234801561001057600080fd5b506004361061007d5760003560e01c806380a38d971161005b57806380a38d9714610128578063b6c2141b14610148578063bcb2c1da1461015d578063c7170bb61461017d57600080fd5b80630716326d14610082578063474740b1146100e65780634ec42e8e146100fd575b600080fd5b6100bc610090366004610888565b60026020819052600091825260409091208054600182015491909201546001600160a01b039092169183565b604080516001600160a01b0390941684526020840192909252908201526060015b60405180910390f35b6100ef60005481565b6040519081526020016100dd565b600154610110906001600160a01b031681565b6040516001600160a01b0390911681526020016100dd565b61013b6101363660046108a1565b610186565b6040516100dd9190610918565b61015b61015636600461095b565b6101d3565b005b61017061016b3660046109c2565b6102c3565b6040516100dd9190610a2a565b6100ef60035481565b60408051600180825281830190925260609160009190602080830190803683370190505090506001816000815181106101c1576101c1610a7a565b60209081029190910101529392505050565b60005481908111156101f857604051630d67f41160e21b815260040160405180910390fd5b60005b818110156102bd573684848381811061021657610216610a7a565b60600291909101915061024a9050336102326020840184610aa5565b6001546001600160a01b03169190602085013561044e565b604080820135600090815260026020522081906102678282610ac2565b505060408101356020820180359061027f9084610aa5565b6001600160a01b03167ff998960b1c6f0e0e89b7bbe6b6fbf3e03e6f08eee5b8430877d8adb8e149d58060405160405180910390a4506001016101fb565b50505050565b6102cb6107b5565b60035482146102ed57604051637db491eb60e01b815260040160405180910390fd5b60006102f984846104a8565b905060005b60038110156104465760006002600084846003811061031f5761031f610a7a565b602090810291909101518101516040908101518352828201939093529082016000908120835160608101855281546001600160a01b031681526001820154938101939093526002015492820192909252915083836003811061038357610383610a7a565b60200201516020015160200151826020015114905060008484600381106103ac576103ac610a7a565b602002015160200151600001516001600160a01b031683600001516001600160a01b0316149050600060405180606001604052808787600381106103f2576103f2610a7a565b602002015160200151604001518152602001856020015181526020018480156104185750835b1515905290508087866003811061043157610431610a7a565b60200201525050600190920191506102fe9050565b505092915050565b604080516001600160a01b0385811660248301528416604482015260648082018490528251808303909101815260849091019091526020810180516001600160e01b03166323b872dd60e01b1790526102bd90859061060e565b6104b06107f4565b60005b8281101561060757815160209081015101518484838181106104d7576104d7610a7a565b9050610120020160c0016020013511156105315760208201805160408401528251905283838281811061050c5761050c610a7a565b905061012002018036038101906105239190610bd9565b8260005b60200201526105ff565b602080830151810151015184848381811061054e5761054e610a7a565b9050610120020160c00160200135111561059d576020820151604083015283838281811061057e5761057e610a7a565b905061012002018036038101906105959190610bd9565b826001610527565b604082015160209081015101518484838181106105bc576105bc610a7a565b9050610120020160c0016020013511156105ff578383828181106105e2576105e2610a7a565b905061012002018036038101906105f99190610bd9565b60408301525b6001016104b3565b5092915050565b60006106236001600160a01b0384168361067b565b905080516000141580156106485750808060200190518101906106469190610c69565b155b1561067657604051635274afe760e01b81526001600160a01b03841660048201526024015b60405180910390fd5b505050565b606061068983836000610690565b9392505050565b6060814710156106b55760405163cd78605960e01b815230600482015260240161066d565b600080856001600160a01b031684866040516106d19190610c8b565b60006040518083038185875af1925050503d806000811461070e576040519150601f19603f3d011682016040523d82523d6000602084013e610713565b606091505b509150915061072386838361072d565b9695505050505050565b6060826107425761073d82610789565b610689565b815115801561075957506001600160a01b0384163b155b1561078257604051639996b31560e01b81526001600160a01b038516600482015260240161066d565b5080610689565b8051156107995780518082602001fd5b604051630a12f52160e11b815260040160405180910390fd5b50565b60405180606001604052806003905b60408051606081018252600080825260208083018290529282015282526000199092019101816107c45790505090565b60405180606001604052806003905b61080b610821565b8152602001906001900390816108035790505090565b60405180604001604052806108656040518060c001604052806000815260200160008152602001600081526020016000815260200160008152602001600081525090565b815260408051606081018252600080825260208281018290529282015291015290565b60006020828403121561089a57600080fd5b5035919050565b600080602083850312156108b457600080fd5b823567ffffffffffffffff8111156108cb57600080fd5b8301601f810185136108dc57600080fd5b803567ffffffffffffffff8111156108f357600080fd5b85602060c08302840101111561090857600080fd5b6020919091019590945092505050565b602080825282518282018190526000918401906040840190835b81811015610950578351835260209384019390920191600101610932565b509095945050505050565b6000806020838503121561096e57600080fd5b823567ffffffffffffffff81111561098557600080fd5b8301601f8101851361099657600080fd5b803567ffffffffffffffff8111156109ad57600080fd5b85602060608302840101111561090857600080fd5b600080602083850312156109d557600080fd5b823567ffffffffffffffff8111156109ec57600080fd5b8301601f810185136109fd57600080fd5b803567ffffffffffffffff811115610a1457600080fd5b8560206101208302840101111561090857600080fd5b6101208101818360005b6003811015610a71578151805184526020810151602085015260408101511515604085015250606083019250602082019150600181019050610a34565b50505092915050565b634e487b7160e01b600052603260045260246000fd5b6001600160a01b03811681146107b257600080fd5b600060208284031215610ab757600080fd5b813561068981610a90565b8135610acd81610a90565b81546001600160a01b0319166001600160a01b039190911617815560208201356001820155604090910135600290910155565b6040805190810167ffffffffffffffff81118282101715610b3157634e487b7160e01b600052604160045260246000fd5b60405290565b60405160c0810167ffffffffffffffff81118282101715610b3157634e487b7160e01b600052604160045260246000fd5b600060608284031215610b7a57600080fd5b6040516060810167ffffffffffffffff81118282101715610bab57634e487b7160e01b600052604160045260246000fd5b6040529050808235610bbc81610a90565b815260208381013590820152604092830135920191909152919050565b600081830361012081128015610bee57600080fd5b506000610bf9610b00565b60c0831215610c06578182fd5b610c0e610b37565b853581526020808701359082015260408087013590820152606080870135908201526080808701359082015260a0808701359082018190528183529093509150610c5b8660c08701610b68565b602082015295945050505050565b600060208284031215610c7b57600080fd5b8151801515811461068957600080fd5b6000825160005b81811015610cac5760208186018101518583015201610c92565b50600092019182525091905056fea26469706673582212201a41add79cb171abb895d9581179301bd58160abb58ca4394c6b7d771da054a464736f6c634300081c0033",
  "linkReferences": {},
  "deployedLinkReferences": {}
}